:100000000C9490000C94AF000C94AF000C94AF00D3
:100010000C94AF000C94AF000C94AF000C94AF00A4
:100020000C94AF000C94AF000C94AF000C94AF0094
:100030000C94AF000C94AF000C94AF000C94AF0084
:100040000C94AF000C94AF000C94AF000C94AF0074
:100050000C94AF000C94AF000C94AF000C94AF0064
:100060000C94AF000C94AF000C94AF000C94AF0054
:100070000C94AF000C94AF000C94AF000C94AF0044
:100080000C94AF000C94AF000C94AF000C94AF0034
:100090000C94AF000C94AF000C94AF000C94AF0024
:1000A0000C94AF000C94AF000C94AF000C94AF0014
:1000B0000C94AF000C94AF000C94AF000C94AF0004
:1000C0000C94AF000C94AF000C94AF000C94AF00F4
:1000D0000C94AF000C94AF000C94AF000C94AF00E4
:1000E0000C94AF000C94AF000C94AF000C94AF00D4
:1000F0000C94AF000C94AF000C94AF000C94AF00C4
:100100000C94AF000C94AF000C94AF000C94AF00B3
:100110000C94AF000C94AF000C94AF000C94AF00A3
:1001200011241FBECFEFD1E4DEBFCDBF12E0A0E0AF
:10013000B2E0EAEDF2E000E00BBF02C007900D92E2
:10014000A230B107D9F712E0A2E0B2E001C01D92DF
:10015000A131B107E1F70E942F010C946B010C94BF
:1001600000009B01AC01809110028823B9F581E069
:1001700080931002CA01B9016050774F824C9F4FA3
:10018000F2E0660F771F881F991FFA95D1F7E3E019
:10019000220F331F441F551FEA95D1F70E944901D2
:1001A000215030403093CD002093CC0022E02093AA
:1001B000C80086E08093CA0088E18093C9008EE081
:1001C000E2E0F2E0DF011D928A95E9F78DEF90E021
:1001D00090930B0280930A02209305020895809168
:1001E000C80087FFFCCF8091CE0008959091C80091
:1001F00095FFFCCF8093CE0008950E94F60080E02A
:1002000090E00895999A089584B392E0892784BB79
:100210000895A1980895A19A0895879A089581B3A1
:10022000805881BB08958F9808958F9A0895869A73
:10023000089581B390E4892781BB08958E9808952D
:100240008E9A08950E9402010E940D010E941701DA
:100250000E9420010E9415010E940B01089560E098
:1002600071EE80E090E00E94B1000E94220178943B
:100270000E94EF00823339F0833341F08133C1F7BC
:100280000E941901F5CF0E940F01F2CF0E940401D4
:10029000EFCFA1E21A2EAA1BBB1BFD010DC0AA1FA6
:1002A000BB1FEE1FFF1FA217B307E407F50720F0DF
:1002B000A21BB30BE40BF50B661F771F881F991F5A
:1002C0001A9469F760957095809590959B01AC01A3
:0A02D000BD01CF010895F894FFCF9F
:0202DA0002021E
:00000001FF
