:100000000C9490000C94AF000C94AF000C94AF00D3
:100010000C94AF000C94AF000C94AF000C94AF00A4
:100020000C94AF000C94AF000C94AF000C94AF0094
:100030000C94AF000C94AF000C94AF000C94AF0084
:100040000C94AF000C94AF000C94AF000C94AF0074
:100050000C94AF000C94AF000C94AF000C94AF0064
:100060000C94AF000C94AF000C94AF000C94AF0054
:100070000C94AF000C94AF000C94AF000C94AF0044
:100080000C94AF000C94AF000C94AF000C94AF0034
:100090000C94AF000C94AF000C94AF000C94AF0024
:1000A0000C94AF000C94AF000C94AF000C94AF0014
:1000B0000C94AF000C94AF000C94AF000C94AF0004
:1000C0000C94AF000C94AF000C94AF000C94AF00F4
:1000D0000C94AF000C94AF000C94AF000C94AF00E4
:1000E0000C94AF000C94AF000C94AF000C94AF00D4
:1000F0000C94AF000C94AF000C94AF000C94AF00C4
:100100000C94AF000C94AF000C94AF000C94AF00B3
:100110000C94AF000C94AF000C94AF000C94AF00A3
:1001200011241FBECFEFD1E4DEBFCDBF18E0A0E0A9
:10013000B2E0E6EAF9E000E00BBF02C007900D92E2
:10014000AE32B107D9F718E0AEE2B8E001C01D92B7
:10015000A434B107E1F70E946D010C94D1040C9412
:1001600000000E94C40187FDFCCF0895FF920F9309
:100170001F93182F062FF42E6A37F8F48430E8F412
:100180006D3340F081E00E94BE010E94B100802FDB
:100190008D5306C080E00E94BE010E94B100802FF6
:1001A0000E94B3010E94B100812F886B0E94B301AD
:1001B0000E94B1008F2D0E94A8011F910F91FF9006
:1001C000089580933C0860933D0808951F93CF9352
:1001D000DF938A3041F410923C0880913D088F5F94
:1001E00080933D082AC090913C08943139F41092D4
:1001F0003C0890913D089F5F90933D0890913D0889
:100200009430D8F496E0899FE0011124C45DDD4F5D
:1002100010E0499180913C08682F660F680F660FC7
:10022000610F80913D080E94B6001F5F163089F76C
:1002300080913C088F5F80933C08DF91CF911F91A4
:1002400008950E94E60080E090E008950F931F93C8
:1002500010E00BC0812F602F40E00E94B6000F5FBE
:100260000A37C1F71F5F143011F000E0F3CF1F9180
:100270000F9108950E94A00180E00E94BE010E949B
:10028000B10082EE0E94B3010E94B1008FEA0E9489
:10029000B30181E00E94BE010E94B10082EE0E9483
:1002A000B3010E94B1008FEA0E94B3010E942601AF
:1002B00010923C0810923D088EE0EEE2F8E0DF017B
:1002C0001D928A95E9F781E291E090933708809337
:1002D000360882E08093310808950E94CE010E9482
:1002E000E3010E94EC010E943A0180912C08909158
:1002F0002D08909341088093400880E060E00E94C0
:10030000E10060912C0870912D0880E092E00E943D
:10031000EE0187E063E00E94E10000D000D088E2B7
:1003200092E0EDB7FEB7928381838CED97E09483E2
:1003300083830E9419020F900F900F900F90FFCFB0
:10034000549A559A579A569A5D9A5F9A5E9808956C
:100350009FEF9DB95E9A5D988EB900000000000085
:100360005D9A5E9808959FEF9DB95E985D988EB9ED
:100370000000000000005D9A5E980895882311F047
:100380005C9A08955C9808951DB81EB85E985F98B1
:100390000000000000008EB15F9A0895999A0895B8
:1003A00084B392E0892784BB0895A1980895A19A07
:1003B0000895879A089581B3805881BB08958F98D6
:1003C00008958F9A0895869A089581B390E48927B5
:1003D00081BB08958E9808958E9A0895EF92FF92AA
:1003E0000F931F93CF93DF937C018B01DB01139657
:1003F0008C9181FD03C0CFEFDFEF13C0C0E0D0E0F0
:100400000BC0D8011896ED91FC911997B801099588
:10041000892B11F0CFEFDFEFF70181917F01882366
:1004200081F7CE01DF91CF911F910F91FF90EF9057
:100430000895DF93CF93CDB7DEB7FE013596619176
:1004400071918091400890914108AF010E942B0268
:10045000CF91DF9108952F923F924F925F926F92CA
:100460007F928F929F92AF92BF92CF92DF92EF9244
:10047000FF920F931F93DF93CF93CDB7DEB72B97E8
:100480000FB6F894DEBF0FBECDBF3C012B015A0161
:10049000FC0117821682838181FD03C06FEF7FEF1D
:1004A000C6C19AE0892E1E010894211C311CF3015B
:1004B0002381F20123FD859123FF81912F01882360
:1004C00009F4B2C1853239F423FD859123FF81916E
:1004D0002F01853229F490E0B3010E944704E7CF51
:1004E000982FFF24EE249924FFE1FF15D0F09B32D2
:1004F00069F09C3228F4903259F0933291F40EC096
:100500009D3249F0903369F441E024C052E0F52A6D
:1005100084E0F82A28C098E0F92A25C0E0E1FE2A04
:1005200022C0F7FC29C0892F80538A3070F4F6FE70
:1005300005C0989C902C1124980E15C0E89CE02CC6
:100540001124E80EF0E2FF2A0EC09E3229F4F6FCD8
:100550006BC140E4F42A07C09C3619F450E8F52A30
:1005600002C0983649F4F20123FD959123FF919141
:100570002F01992309F0B8CF892F8554833018F0C3
:100580008052833038F444E050E0A40EB51E5FE39F
:1005900059830FC0933631F0933779F0933509F0D2
:1005A00056C020C0F5018081898342E050E0A40E4E
:1005B000B51E610101E010E012C0F501C080D180DC
:1005C000F6FC03C06FEF7FEF02C0692D70E042E0E0
:1005D00050E0A40EB51EC6010E943C048C015FE7EA
:1005E000F52214C0F501C080D180F6FC03C06FEF86
:1005F0007FEF02C0692D70E042E050E0A40EB51E0E
:10060000C6010E9431048C0150E8F52AF3FE07C0B0
:100610001AC080E290E0B3010E944704EA948E2D54
:1006200090E008171907A8F30EC0F601F7FC8591B2
:10063000F7FE81916F0190E0B3010E944704E11041
:10064000EA94015010400115110579F7EAC094367B
:1006500011F0993669F5F7FE08C0F5012081318166
:100660004281538184E090E00AC0F501808191814C
:100670009C01442737FD4095542F82E090E0A80E5E
:10068000B91E9FE6F92257FF09C050954095309555
:1006900021953F4F4F4F5F4FE0E8FE2ACA01B90155
:1006A000A1012AE030E00E947304D82ED21840C085
:1006B000953729F41F2D1F7E2AE030E01DC01F2D25
:1006C000197F9F3661F0903720F4983509F0ACC05F
:1006D0000FC0903739F0983709F0A6C004C028E061
:1006E00030E00AC0106114FD146020E130E004C065
:1006F00014FD166020E132E017FF08C0F5016081AB
:1007000071818281938144E050E008C0F5018081CD
:100710009181BC0180E090E042E050E0A40EB51E63
:10072000A1010E947304D82ED2188FE7F82EF1226F
:10073000F6FE0BC05EEFF522D91438F4F4FE07C0C4
:10074000F2FC05C08FEEF82202C01D2D01C0192D4C
:10075000F4FE0DC0FE01ED0DF11D8081803319F412
:1007600099EEF92208C01F5FF2FE05C003C08F2D6D
:10077000867809F01F5F0F2DF3FC14C0F0FE0FC048
:100780001E1510F09D2C0BC09D2C9E0C911A1E2D39
:1007900006C080E290E0B3010E9447041F5F1E156F
:1007A000C0F304C01E1510F4E11A01C0EE2404FFCA
:1007B0000FC080E390E0B3010E94470402FF1DC018
:1007C00001FD03C088E790E00EC088E590E00BC013
:1007D000802F867891F001FF02C08BE201C080E299
:1007E000F7FC8DE290E0B3010E94470406C080E36D
:1007F00090E0B3010E9447049A94D914C0F3DA94AC
:10080000F101ED0DF11D808190E0B3010E944704DC
:10081000DD20A9F706C080E290E0B3010E94470402
:10082000EA94EE20C1F743CEF30166817781CB01D4
:100830002B960FB6F894DEBF0FBECDBFCF91DF91E0
:100840001F910F91FF90EF90DF90CF90BF90AF90EE
:100850009F908F907F906F905F904F903F902F90E0
:100860000895FC010590615070400110D8F7809503
:1008700090958E0F9F1F0895FC016150704001906C
:100880000110D8F7809590958E0F9F1F08950F93B4
:100890001F93CF93DF938C01EB018B8181FF1BC0F2
:1008A00082FF0DC02E813F818C819D8128173907E1
:1008B00064F4E881F9810193F983E88306C0E8854F
:1008C000F985802F0995892B31F48E819F810196BE
:1008D0009F838E8302C00FEF1FEFC801DF91CF917E
:1008E0001F910F910895FA01AA27283051F1203164
:1008F00081F1E8946F936E7F6E5F7F4F8F4F9F4FB4
:10090000AF4FB1E03ED0B4E03CD0670F781F891FF5
:100910009A1FA11D680F791F8A1F911DA11D6A0FC3
:10092000711D811D911DA11D20D009F468943F9176
:100930002AE0269F11243019305D3193DEF6CF0175
:100940000895462F4770405D4193B3E00FD0C9F73B
:10095000F6CF462F4F70405D4A3318F0495D31FDA8
:100960004052419302D0A9F7EACFB4E0A6959795FB
:10097000879577956795BA95C9F7009761057105D1
:1009800008959B01AC010A2E06945795479537951B
:100990002795BA95C9F7620F731F841F951FA01D75
:0609A0000895F894FFCF5A
:1009A600202020536F66747761726520466F72202F
:1009B6002020202020456D626564646564202053F4
:1009C600797374656D730A0025640A0000000000DF
:1009D6000000003E4551453E003E6B6F6B3E001CDD
:1009E6003E7C3E1C00183C7E3C180030367F36307C
:1009F60000185C7E5C18000000000000000000008B
:100A060000000000000000000000000000000030B0
:100A1600484A360E00062979290600000000000023
:100A260000607E0A353F002A1C361C2A00007F3EE5
:100A36001C0800081C3E7F000014367F3614000098
:100A46005F005F000006097F017F00224D55592295
:100A56000060606060000014B6FFB6140004067FF4
:100A660006040010307F30100008083E1C080008FD
:100A76001C3E080800784040404000083E083E08FA
:100A860000303C3F3C3000030F3F0F0300000000E6
:100A960000000000065F06000007030007030024AD
:100AA6007E247E2400242B6A1200006313086463EC
:100AB60000364956205000000703000000003E4162
:100AC60000000000413E000000083E1C3E080008F1
:100AD600083E08080000E060000000080808080852
:100AE600000060600000002010080402003E51492A
:100AF600453E0000427F40000062514949460022BF
:100B060049494936001814127F10002F49494931C6
:100B1600003C4A494930000171090503003649493C
:100B2600493600064949291E00006C6C0000000089
:100B3600EC6C000000081422410000242424242424
:100B4600000041221408000201590906003E415DD9
:100B5600551E007E1111117E007F49494936003E1F
:100B660041414122007F4141413E007F494949417F
:100B7600007F09090901003E4149497A007F0808BA
:100B8600087F0000417F410000304040403F007F29
:100B960008142241007F40404040007F0204027F4B
:100BA600007F0204087F003E4141413E007F090963
:100BB6000906003E4151215E007F0909196600269B
:100BC600494949320001017F0101003F4040403F51
:100BD600001F2040201F003F403C403F0063140898
:100BE60014630007087008070071494543000000B8
:100BF6007F414100000204081020000041417F00AF
:100C060000040201020480808080808000000307C7
:100C16000000002054545478007F4444443800387F
:100C26004444442800384444447F0038545454080B
:100C360000087E0909000018A4A4A47C007F04040F
:100C460078000000007D4000004080847D00007F29
:100C5600102844000000007F4000007C041804783F
:100C6600007C0404780000384444443800FC4444C2
:100C760044380038444444FC0044784404080008DE
:100C86005454542000043E442400003C40207C0080
:100C9600001C2040201C003C6030603C006C1010A2
:100CA6006C00009CA0603C00006454544C0000089A
:100CB6003E414100000000770000000041413E082F
:100CC600000201020100003C2623263C001EA1E191
:100CD6002112003D40207D00003854545509002063
:100CE600555555780020555455780020555554785B
:100CF600002057555778001CA2E22214003855559B
:100D06005508003855545508003855555408000004
:100D1600017C41000000017D41000000017C400093
:100D260000702924297000782F252F78007C5454D0
:100D360055450034547C5458007E097F4949003893
:100D460045453900003845443900003945443800E6
:100D5600003C41217D00003D41207C00009CA160BB
:100D66003D00003D42423D00003C41403D00807058
:100D76006858380400483E494962007E615D433F39
:100D86000022140814220040887E090200205455CF
:100D960055780000007D4100003844453900003C8C
:100DA60040217D00007A090A7100007A112279003B
:100DB60000085555555E004E51514E000030484DC5
:100DC60040203E415D4B553E04040404041C0017BC
:100DD600084C6A50001708342A780000307D30002D
:100DE60000081400081400140800140844114411E3
:100DF6004411AA55AA55AA55BBEEBBEEBBEE0000A0
:100E060000FF0000080808FF000000702825297070
:100E16000070292529700070292528703E415D55EE
:100E2600413E0AFB00FF000000FF00FF00000AFA37
:100E360002FE00000A0B080F0000001824662400BA
:100E460000292A7C2A29080808F800000000000F5B
:100E560008080808080F0808080808F80808000025
:100E660000FF0808080808080808080808FF080816
:100E760000205655567900702A252A71000F080B56
:100E86000A0A00FE02FA0A0A0A0B080B0A0A0AFAFA
:100E960002FA0A0A00FF00FB0A0A0A0A0A0A0A0AF2
:100EA6000AFB00FB0A0A005D2222225D0022555938
:100EB600300000087F49413E007C55555544007C72
:100EC60055545544007C5555544400000007000015
:100ED6000000447D45000000457D45000000457C3E
:100EE60045000808080F0000000000F80808FFFF8A
:100EF600FFFFFFFFF0F0F0F0F0F0000000770000D9
:100F06000000457D44000F0F0F0F0F0F003C4243BA
:100F16003D0000FE4A4A3400003C43433D00003D8C
:100F260043423C000032494A3100003A4546390006
:100F360000FC20201C0000FEAA28100000FFA524AB
:100F46001800003C40413D00003C41413D00003D51
:100F560041403C00009CA0613D000004087109046A
:100F6600000002020200000007030000000008085B
:100F760008000000242E240000242424242405171D
:100F86000A342A780006097F017F00224D5559222E
:100F96000008082A080800000818180000060909B1
:100FA600060000000800080000000800000000021B
:100FB6000F00000000090F05000000090D0A0000DF
:0E0FC600003C3C3C3C000000000000002E08F7
:00000001FF
