:100000000C9490000C94A2000C94A2000C94A200FA
:100010000C94A2000C94A2000C94A2000C94A200D8
:100020000C94A2000C94A2000C94A2000C94A200C8
:100030000C94A2000C94AE010C94A2000C94A200AB
:100040000C94A2000C94A2000C94A2000C94A200A8
:100050000C94A2000C94A2000C94A2000C94A20098
:100060000C94A2000C94A2000C94A2000C94A20088
:100070000C94A2000C94A2000C94A2000C94A20078
:100080000C94A2000C94A2000C94A2000C94A20068
:100090000C94A2000C94A2000C94A2000C94A20058
:1000A0000C94A2000C94A2000C94A2000C94A20048
:1000B0000C94A2000C94A2000C94A2000C94A20038
:1000C0000C94A2000C94A2000C94A2000C94A20028
:1000D0000C94A2000C94A2000C94A2000C94A20018
:1000E0000C94A2000C94A2000C94A2000C94A20008
:1000F0000C94A2000C94A2000C94A2000C94A200F8
:100100000C94A2000C94A2000C94A2000C94A200E7
:100110000C94A2000C94A2000C94A2000C94A200D7
:1001200011241FBECFEFD1E4DEBFCDBF12E0A0E0AF
:10013000B2E001C01D92AE33B107E1F70E94A40006
:100140000C94DB010C9400000E94C80044EF51E0C5
:1001500064EF71E08AEC90E00E9444010E94EF009D
:100160000E94F300FDCF999A089584B392E0892705
:1001700084BB0895A1980895A19A0895879A089537
:1001800081B3805881BB08958F9808958F9A089500
:10019000869A089581B390E4892781BB08958E984B
:1001A00008958E9A089580E090E056E04FB7F89455
:1001B000589FF001599FF00D1124EE5FFD4F2081F3
:1001C0003181232B31F02281338121503109338356
:1001D00022834FBF01968A30910541F7089583ED40
:1001E00090E00C949101CF92DF92EF92FF920F93E7
:1001F0001F93CF93DF9300D000D000D0CDB7DEB7F0
:1002000000E010E086E0D82ED09EF001D19EF00DE7
:100210001124EE5FFD4FDE0111968D2D01900D92A0
:100220008A95E1F7E981FA818B819C81ED80FE80DE
:100230003097B1F0CFB6F894892B89F40995D09E08
:10024000F001D19EF00D1124EE5FFD4FEF2819F45F
:100250001182108204C08481958193838283CFBEF2
:100260000F5F1F4F0A30110579F626960FB6F894E6
:10027000DEBF0FBECDBFDF91CF911F910F91FF90D9
:10028000EF90DF90CF9008951F93CF93DF9300D02E
:1002900000D000D0CDB7DEB720E030E016E0129FEE
:1002A000D001139FB00D1124AE5FBD4FED91FC91B5
:1002B0001197EF2B79F49A8389837C836B835E8318
:1002C0004D8386E0FE01319601900D928A95E1F70B
:1002D00080E006C02F5F3F4F2A30310501F781E0F3
:1002E00026960FB6F894DEBF0FBECDBFDF91CF913B
:1002F0001F91089520E030E066E0629FF001639F67
:10030000F00D1124EE5FFD4F408151818417950758
:1003100011F4118210822F5F3F4F2A30310569F7A7
:1003200008959093010280930002E4E6F0E080815A
:100330008F7B8083E0EBF0E08081826080838AEFB6
:100340008093B300E1EBF0E0808184608083E0E79C
:10035000F0E0808182608083B99A08951F920F92A5
:100360000FB60F9211240BB60F922F933F934F931A
:100370005F936F937F938F939F93AF93BF93EF930D
:10038000FF93E0910002F0910102309709F0099586
:10039000FF91EF91BF91AF919F918F917F916F915D
:1003A0005F914F913F912F910F900BBE0F900FBE19
:0A03B0000F901F901895F894FFCFEE
:00000001FF
